{
  "_format": "hh-sol-artifact-1",
  "contractName": "Upload",
  "sourceName": "contracts/Upload.sol",
  "abi": [
    {
      "inputs": [
        {
          "internalType": "address",
          "name": "_user",
          "type": "address"
        },
        {
          "internalType": "string",
          "name": "url",
          "type": "string"
        }
      ],
      "name": "add",
      "outputs": [],
      "stateMutability": "nonpayable",
      "type": "function"
    },
    {
      "inputs": [
        {
          "internalType": "address",
          "name": "user",
          "type": "address"
        }
      ],
      "name": "allow",
      "outputs": [],
      "stateMutability": "nonpayable",
      "type": "function"
    },
    {
      "inputs": [
        {
          "internalType": "string",
          "name": "_password1",
          "type": "string"
        },
        {
          "internalType": "string",
          "name": "_password2",
          "type": "string"
        },
        {
          "internalType": "string",
          "name": "_password3",
          "type": "string"
        }
      ],
      "name": "authenticate",
      "outputs": [
        {
          "internalType": "bool",
          "name": "",
          "type": "bool"
        }
      ],
      "stateMutability": "view",
      "type": "function"
    },
    {
      "inputs": [
        {
          "internalType": "string",
          "name": "a",
          "type": "string"
        },
        {
          "internalType": "string",
          "name": "b",
          "type": "string"
        }
      ],
      "name": "compareStrings",
      "outputs": [
        {
          "internalType": "bool",
          "name": "",
          "type": "bool"
        }
      ],
      "stateMutability": "pure",
      "type": "function"
    },
    {
      "inputs": [
        {
          "internalType": "uint256",
          "name": "index",
          "type": "uint256"
        }
      ],
      "name": "deleteUrl",
      "outputs": [],
      "stateMutability": "nonpayable",
      "type": "function"
    },
    {
      "inputs": [
        {
          "internalType": "address",
          "name": "user",
          "type": "address"
        }
      ],
      "name": "disallow",
      "outputs": [],
      "stateMutability": "nonpayable",
      "type": "function"
    },
    {
      "inputs": [
        {
          "internalType": "address",
          "name": "_user",
          "type": "address"
        }
      ],
      "name": "display",
      "outputs": [
        {
          "internalType": "string[]",
          "name": "",
          "type": "string[]"
        }
      ],
      "stateMutability": "view",
      "type": "function"
    },
    {
      "inputs": [
        {
          "internalType": "string",
          "name": "_password1",
          "type": "string"
        },
        {
          "internalType": "string",
          "name": "_password2",
          "type": "string"
        },
        {
          "internalType": "string",
          "name": "_password3",
          "type": "string"
        }
      ],
      "name": "register",
      "outputs": [],
      "stateMutability": "nonpayable",
      "type": "function"
    },
    {
      "inputs": [],
      "name": "shareAccess",
      "outputs": [
        {
          "components": [
            {
              "internalType": "address",
              "name": "user",
              "type": "address"
            },
            {
              "internalType": "bool",
              "name": "access",
              "type": "bool"
            }
          ],
          "internalType": "struct Upload.Access[]",
          "name": "",
          "type": "tuple[]"
        }
      ],
      "stateMutability": "view",
      "type": "function"
    }
  ],
  "bytecode": "0x608060405234801561001057600080fd5b506120c8806100206000396000f3fe608060405234801561001057600080fd5b50600436106100935760003560e01c8063bc8bef8111610066578063bc8bef8114610108578063bed34bba14610126578063c4bb2b1514610156578063eb39113f14610186578063ff9913e8146101b657610093565b806336d6da55146100985780633b4a8c80146100b45780634cd08d03146100d0578063a9ed9cb8146100ec575b600080fd5b6100b260048036038101906100ad9190611603565b6101d2565b005b6100ce60048036038101906100c99190611695565b61024e565b005b6100ea60048036038101906100e591906116c2565b610487565b005b61010660048036038101906101019190611769565b61069e565b005b6101106108c1565b60405161011d919061189e565b60405180910390f35b610140600480360381019061013b91906118c0565b6109ca565b60405161014d9190611947565b60405180910390f35b610170600480360381019061016b91906116c2565b610a23565b60405161017d9190611947565b60405180910390f35b6101a0600480360381019061019b9190611769565b610c7e565b6040516101ad9190611aac565b60405180910390f35b6101d060048036038101906101cb9190611769565b610e94565b005b6000808373ffffffffffffffffffffffffffffffffffffffff1673ffffffffffffffffffffffffffffffffffffffff168152602001908152602001600020819080600181540180825580915050600190039060005260206000200160009091909190915090805190602001906102499291906112db565b505050565b6000803373ffffffffffffffffffffffffffffffffffffffff1673ffffffffffffffffffffffffffffffffffffffff1681526020019081526020016000208054905081106102d1576040517f08c379a00000000000000000000000000000000000000000000000000000000081526004016102c890611b2b565b60405180910390fd5b60008190505b60016000803373ffffffffffffffffffffffffffffffffffffffff1673ffffffffffffffffffffffffffffffffffffffff168152602001908152602001600020805490506103259190611b7a565b811015610417576000803373ffffffffffffffffffffffffffffffffffffffff1673ffffffffffffffffffffffffffffffffffffffff1681526020019081526020016000206001826103779190611bae565b8154811061038857610387611c04565b5b906000526020600020016000803373ffffffffffffffffffffffffffffffffffffffff1673ffffffffffffffffffffffffffffffffffffffff16815260200190815260200160002082815481106103e2576103e1611c04565b5b906000526020600020019080546103f890611c62565b610403929190611361565b50808061040f90611c94565b9150506102d7565b506000803373ffffffffffffffffffffffffffffffffffffffff1673ffffffffffffffffffffffffffffffffffffffff16815260200190815260200160002080548061046657610465611cdd565b5b60019003818190600052602060002001600061048291906113ee565b905550565b60008351116104cb576040517f08c379a00000000000000000000000000000000000000000000000000000000081526004016104c290611d58565b60405180910390fd5b600082511161050f576040517f08c379a000000000000000000000000000000000000000000000000000000000815260040161050690611dc4565b60405180910390fd5b6000815111610553576040517f08c379a000000000000000000000000000000000000000000000000000000000815260040161054a90611e30565b60405180910390fd5b6000600460003373ffffffffffffffffffffffffffffffffffffffff1673ffffffffffffffffffffffffffffffffffffffff16815260200190815260200160002060000180546105a290611c62565b905011156105e5576040517f08c379a00000000000000000000000000000000000000000000000000000000081526004016105dc90611e9c565b60405180910390fd5b604051806060016040528084815260200183815260200182815250600460003373ffffffffffffffffffffffffffffffffffffffff1673ffffffffffffffffffffffffffffffffffffffff168152602001908152602001600020600082015181600001908051906020019061065b9291906112db565b5060208201518160010190805190602001906106789291906112db565b5060408201518160020190805190602001906106959291906112db565b50905050505050565b6000600160003373ffffffffffffffffffffffffffffffffffffffff1673ffffffffffffffffffffffffffffffffffffffff16815260200190815260200160002060008373ffffffffffffffffffffffffffffffffffffffff1673ffffffffffffffffffffffffffffffffffffffff16815260200190815260200160002060006101000a81548160ff02191690831515021790555060005b600260003373ffffffffffffffffffffffffffffffffffffffff1673ffffffffffffffffffffffffffffffffffffffff168152602001908152602001600020805490508110156108bd578173ffffffffffffffffffffffffffffffffffffffff16600260003373ffffffffffffffffffffffffffffffffffffffff1673ffffffffffffffffffffffffffffffffffffffff16815260200190815260200160002082815481106107e8576107e7611c04565b5b9060005260206000200160000160009054906101000a900473ffffffffffffffffffffffffffffffffffffffff1673ffffffffffffffffffffffffffffffffffffffff1614156108aa576000600260003373ffffffffffffffffffffffffffffffffffffffff1673ffffffffffffffffffffffffffffffffffffffff168152602001908152602001600020828154811061088557610884611c04565b5b9060005260206000200160000160146101000a81548160ff0219169083151502179055505b80806108b590611c94565b915050610736565b5050565b6060600260003373ffffffffffffffffffffffffffffffffffffffff1673ffffffffffffffffffffffffffffffffffffffff168152602001908152602001600020805480602002602001604051908101604052809291908181526020016000905b828210156109c1578382906000526020600020016040518060400160405290816000820160009054906101000a900473ffffffffffffffffffffffffffffffffffffffff1673ffffffffffffffffffffffffffffffffffffffff1673ffffffffffffffffffffffffffffffffffffffff1681526020016000820160149054906101000a900460ff16151515158152505081526020019060010190610922565b50505050905090565b6000816040516020016109dd9190611ef8565b6040516020818303038152906040528051906020012083604051602001610a049190611ef8565b6040516020818303038152906040528051906020012014905092915050565b600080600460003373ffffffffffffffffffffffffffffffffffffffff1673ffffffffffffffffffffffffffffffffffffffff1681526020019081526020016000206000018054610a7390611c62565b905011610ab5576040517f08c379a0000000000000000000000000000000000000000000000000000000008152600401610aac90611f5b565b60405180910390fd5b83604051602001610ac69190611ef8565b60405160208183030381529060405280519060200120600460003373ffffffffffffffffffffffffffffffffffffffff1673ffffffffffffffffffffffffffffffffffffffff168152602001908152602001600020600001604051602001610b2e919061200f565b60405160208183030381529060405280519060200120148015610bdd575082604051602001610b5d9190611ef8565b60405160208183030381529060405280519060200120600460003373ffffffffffffffffffffffffffffffffffffffff1673ffffffffffffffffffffffffffffffffffffffff168152602001908152602001600020600101604051602001610bc5919061200f565b60405160208183030381529060405280519060200120145b8015610c75575081604051602001610bf59190611ef8565b60405160208183030381529060405280519060200120600460003373ffffffffffffffffffffffffffffffffffffffff1673ffffffffffffffffffffffffffffffffffffffff168152602001908152602001600020600201604051602001610c5d919061200f565b60405160208183030381529060405280519060200120145b90509392505050565b60603373ffffffffffffffffffffffffffffffffffffffff168273ffffffffffffffffffffffffffffffffffffffff161480610d405750600160008373ffffffffffffffffffffffffffffffffffffffff1673ffffffffffffffffffffffffffffffffffffffff16815260200190815260200160002060003373ffffffffffffffffffffffffffffffffffffffff1673ffffffffffffffffffffffffffffffffffffffff16815260200190815260200160002060009054906101000a900460ff165b610d7f576040517f08c379a0000000000000000000000000000000000000000000000000000000008152600401610d7690612072565b60405180910390fd5b6000808373ffffffffffffffffffffffffffffffffffffffff1673ffffffffffffffffffffffffffffffffffffffff168152602001908152602001600020805480602002602001604051908101604052809291908181526020016000905b82821015610e89578382906000526020600020018054610dfc90611c62565b80601f0160208091040260200160405190810160405280929190818152602001828054610e2890611c62565b8015610e755780601f10610e4a57610100808354040283529160200191610e75565b820191906000526020600020905b815481529060010190602001808311610e5857829003601f168201915b505050505081526020019060010190610ddd565b505050509050919050565b60018060003373ffffffffffffffffffffffffffffffffffffffff1673ffffffffffffffffffffffffffffffffffffffff16815260200190815260200160002060008373ffffffffffffffffffffffffffffffffffffffff1673ffffffffffffffffffffffffffffffffffffffff16815260200190815260200160002060006101000a81548160ff021916908315150217905550600360003373ffffffffffffffffffffffffffffffffffffffff1673ffffffffffffffffffffffffffffffffffffffff16815260200190815260200160002060008273ffffffffffffffffffffffffffffffffffffffff1673ffffffffffffffffffffffffffffffffffffffff16815260200190815260200160002060009054906101000a900460ff16156111475760005b600260003373ffffffffffffffffffffffffffffffffffffffff1673ffffffffffffffffffffffffffffffffffffffff16815260200190815260200160002080549050811015611141578173ffffffffffffffffffffffffffffffffffffffff16600260003373ffffffffffffffffffffffffffffffffffffffff1673ffffffffffffffffffffffffffffffffffffffff168152602001908152602001600020828154811061106c5761106b611c04565b5b9060005260206000200160000160009054906101000a900473ffffffffffffffffffffffffffffffffffffffff1673ffffffffffffffffffffffffffffffffffffffff16141561112e576001600260003373ffffffffffffffffffffffffffffffffffffffff1673ffffffffffffffffffffffffffffffffffffffff168152602001908152602001600020828154811061110957611108611c04565b5b9060005260206000200160000160146101000a81548160ff0219169083151502179055505b808061113990611c94565b915050610fba565b506112d8565b600260003373ffffffffffffffffffffffffffffffffffffffff1673ffffffffffffffffffffffffffffffffffffffff16815260200190815260200160002060405180604001604052808373ffffffffffffffffffffffffffffffffffffffff168152602001600115158152509080600181540180825580915050600190039060005260206000200160009091909190915060008201518160000160006101000a81548173ffffffffffffffffffffffffffffffffffffffff021916908373ffffffffffffffffffffffffffffffffffffffff16021790555060208201518160000160146101000a81548160ff02191690831515021790555050506001600360003373ffffffffffffffffffffffffffffffffffffffff1673ffffffffffffffffffffffffffffffffffffffff16815260200190815260200160002060008373ffffffffffffffffffffffffffffffffffffffff1673ffffffffffffffffffffffffffffffffffffffff16815260200190815260200160002060006101000a81548160ff0219169083151502179055505b50565b8280546112e790611c62565b90600052602060002090601f0160209004810192826113095760008555611350565b82601f1061132257805160ff1916838001178555611350565b82800160010185558215611350579182015b8281111561134f578251825591602001919060010190611334565b5b50905061135d919061142e565b5090565b82805461136d90611c62565b90600052602060002090601f01602090048101928261138f57600085556113dd565b82601f106113a057805485556113dd565b828001600101855582156113dd57600052602060002091601f016020900482015b828111156113dc5782548255916001019190600101906113c1565b5b5090506113ea919061142e565b5090565b5080546113fa90611c62565b6000825580601f1061140c575061142b565b601f01602090049060005260206000209081019061142a919061142e565b5b50565b5b8082111561144757600081600090555060010161142f565b5090565b6000604051905090565b600080fd5b600080fd5b600073ffffffffffffffffffffffffffffffffffffffff82169050919050565b600061148a8261145f565b9050919050565b61149a8161147f565b81146114a557600080fd5b50565b6000813590506114b781611491565b92915050565b600080fd5b600080fd5b6000601f19601f8301169050919050565b7f4e487b7100000000000000000000000000000000000000000000000000000000600052604160045260246000fd5b611510826114c7565b810181811067ffffffffffffffff8211171561152f5761152e6114d8565b5b80604052505050565b600061154261144b565b905061154e8282611507565b919050565b600067ffffffffffffffff82111561156e5761156d6114d8565b5b611577826114c7565b9050602081019050919050565b82818337600083830152505050565b60006115a66115a184611553565b611538565b9050828152602081018484840111156115c2576115c16114c2565b5b6115cd848285611584565b509392505050565b600082601f8301126115ea576115e96114bd565b5b81356115fa848260208601611593565b91505092915050565b6000806040838503121561161a57611619611455565b5b6000611628858286016114a8565b925050602083013567ffffffffffffffff8111156116495761164861145a565b5b611655858286016115d5565b9150509250929050565b6000819050919050565b6116728161165f565b811461167d57600080fd5b50565b60008135905061168f81611669565b92915050565b6000602082840312156116ab576116aa611455565b5b60006116b984828501611680565b91505092915050565b6000806000606084860312156116db576116da611455565b5b600084013567ffffffffffffffff8111156116f9576116f861145a565b5b611705868287016115d5565b935050602084013567ffffffffffffffff8111156117265761172561145a565b5b611732868287016115d5565b925050604084013567ffffffffffffffff8111156117535761175261145a565b5b61175f868287016115d5565b9150509250925092565b60006020828403121561177f5761177e611455565b5b600061178d848285016114a8565b91505092915050565b600081519050919050565b600082825260208201905092915050565b6000819050602082019050919050565b6117cb8161147f565b82525050565b60008115159050919050565b6117e6816117d1565b82525050565b60408201600082015161180260008501826117c2565b50602082015161181560208501826117dd565b50505050565b600061182783836117ec565b60408301905092915050565b6000602082019050919050565b600061184b82611796565b61185581856117a1565b9350611860836117b2565b8060005b83811015611891578151611878888261181b565b975061188383611833565b925050600181019050611864565b5085935050505092915050565b600060208201905081810360008301526118b88184611840565b905092915050565b600080604083850312156118d7576118d6611455565b5b600083013567ffffffffffffffff8111156118f5576118f461145a565b5b611901858286016115d5565b925050602083013567ffffffffffffffff8111156119225761192161145a565b5b61192e858286016115d5565b9150509250929050565b611941816117d1565b82525050565b600060208201905061195c6000830184611938565b92915050565b600081519050919050565b600082825260208201905092915050565b6000819050602082019050919050565b600081519050919050565b600082825260208201905092915050565b60005b838110156119c85780820151818401526020810190506119ad565b838111156119d7576000848401525b50505050565b60006119e88261198e565b6119f28185611999565b9350611a028185602086016119aa565b611a0b816114c7565b840191505092915050565b6000611a2283836119dd565b905092915050565b6000602082019050919050565b6000611a4282611962565b611a4c818561196d565b935083602082028501611a5e8561197e565b8060005b85811015611a9a5784840389528151611a7b8582611a16565b9450611a8683611a2a565b925060208a01995050600181019050611a62565b50829750879550505050505092915050565b60006020820190508181036000830152611ac68184611a37565b905092915050565b600082825260208201905092915050565b7f496e76616c696420696e64657800000000000000000000000000000000000000600082015250565b6000611b15600d83611ace565b9150611b2082611adf565b602082019050919050565b60006020820190508181036000830152611b4481611b08565b9050919050565b7f4e487b7100000000000000000000000000000000000000000000000000000000600052601160045260246000fd5b6000611b858261165f565b9150611b908361165f565b925082821015611ba357611ba2611b4b565b5b828203905092915050565b6000611bb98261165f565b9150611bc48361165f565b9250827fffffffffffffffffffffffffffffffffffffffffffffffffffffffffffffffff03821115611bf957611bf8611b4b565b5b828201905092915050565b7f4e487b7100000000000000000000000000000000000000000000000000000000600052603260045260246000fd5b7f4e487b7100000000000000000000000000000000000000000000000000000000600052602260045260246000fd5b60006002820490506001821680611c7a57607f821691505b60208210811415611c8e57611c8d611c33565b5b50919050565b6000611c9f8261165f565b91507fffffffffffffffffffffffffffffffffffffffffffffffffffffffffffffffff821415611cd257611cd1611b4b565b5b600182019050919050565b7f4e487b7100000000000000000000000000000000000000000000000000000000600052603160045260246000fd5b7f50617373776f726420312063616e6e6f7420626520656d707479000000000000600082015250565b6000611d42601a83611ace565b9150611d4d82611d0c565b602082019050919050565b60006020820190508181036000830152611d7181611d35565b9050919050565b7f50617373776f726420322063616e6e6f7420626520656d707479000000000000600082015250565b6000611dae601a83611ace565b9150611db982611d78565b602082019050919050565b60006020820190508181036000830152611ddd81611da1565b9050919050565b7f50617373776f726420332063616e6e6f7420626520656d707479000000000000600082015250565b6000611e1a601a83611ace565b9150611e2582611de4565b602082019050919050565b60006020820190508181036000830152611e4981611e0d565b9050919050565b7f5573657220616c72656164792072656769737465726564000000000000000000600082015250565b6000611e86601783611ace565b9150611e9182611e50565b602082019050919050565b60006020820190508181036000830152611eb581611e79565b9050919050565b600081905092915050565b6000611ed28261198e565b611edc8185611ebc565b9350611eec8185602086016119aa565b80840191505092915050565b6000611f048284611ec7565b915081905092915050565b7f55736572206e6f74207265676973746572656400000000000000000000000000600082015250565b6000611f45601383611ace565b9150611f5082611f0f565b602082019050919050565b60006020820190508181036000830152611f7481611f38565b9050919050565b60008190508160005260206000209050919050565b60008154611f9d81611c62565b611fa78186611ebc565b94506001821660008114611fc25760018114611fd357612006565b60ff19831686528186019350612006565b611fdc85611f7b565b60005b83811015611ffe57815481890152600182019150602081019050611fdf565b838801955050505b50505092915050565b600061201b8284611f90565b915081905092915050565b7f596f7520646f6e27742068617665206163636573730000000000000000000000600082015250565b600061205c601583611ace565b915061206782612026565b602082019050919050565b6000602082019050818103600083015261208b8161204f565b905091905056fea2646970667358221220b62fe25a5a637bcf0b082b5ea383ec4839dad3113b4ac295edf62227717321d764736f6c63430008090033",
  "linkReferences": {},
  "deployedLinkReferences": {}
}